:100000000C9463000C948B000C948B000C942F09BF
:100010000C942F090C942F090C948B000C948B00DA
:100020000C948B000C948B000C948B000C948B0024
:100030000C948B000C948B000C948B000C948B0014
:100040000C94E5080C948B000C94B3080C948D0868
:100050000C948B000C948B000C948B000C948B00F4
:100060000C948B000C948B000000000024002700EF
:100070002A0000000008000201000003040700003D
:1000800000000000000000000000230026002900FE
:1000900000000000250028002B00040404040404D0
:1000A0000404020202020202030303030303010227
:1000B00004081020408001020408102001020408F6
:1000C0001020A7090B0D11241FBECFEFD8E0DEBF13
:1000D000CDBF11E0A0E0B1E0ECEAFFE102C0059085
:1000E0000D92A036B107D9F722E0A0E6B1E001C039
:1000F0001D92A73DB207E1F710E0C2E6D0E004C0D0
:100100002197FE010E94C30FC136D107C9F70E9493
:10011000A60A0C94C90F0C940000EDE8F2E090E000
:100120002FEF3FEF981791F04191242748E0B90154
:100130006170772736952795672B21F051E02527A9
:1001400050EA3527415099F79F5FECCF922F832FCC
:100150000895AF92BF92CF92DF92EF92FF920F93EA
:100160001F93CF93DF936C017B018B01040F151F4D
:10017000EB015E01AE18BF08C017D10759F06991B5
:10018000D601ED91FC910190F081E02DC601099519
:10019000892B79F7C501DF91CF911F910F91FF90C6
:1001A000EF90DF90CF90BF90AF900895FC01538DFA
:1001B000448D252F30E0842F90E0821B930B541741
:1001C00010F0CF96089501970895FC01918D828DCE
:1001D000981761F0A28DAE0FBF2FB11D5D968C9167
:1001E000928D9F5F9F73928F90E008958FEF9FEFA6
:1001F0000895FC01918D828D981731F0828DE80F62
:10020000F11D858D90E008958FEF9FEF0895FC011B
:10021000918D228D892F90E0805C9F4F821B9109E8
:100220008F73992708958BEE91E00E94070121E0DA
:10023000892B09F420E0822F089580E090E0892B3B
:1002400029F00E94130181110C9400000895FC0113
:10025000A48DA80FB92FB11DA35ABF4F2C91848D27
:1002600090E001968F739927848FA689B7892C9384
:10027000A089B1898C91837080648C93938D848DD7
:10028000981306C00288F389E02D80818F7D8083DA
:100290000895EF92FF920F931F93CF93DF93EC019A
:1002A00081E0888F9B8D8C8D98131AC0E889F9891D
:1002B000808185FF15C09FB7F894EE89FF89608320
:1002C000E889F98980818370806480839FBF81E0A1
:1002D00090E0DF91CF911F910F91FF90EF900895E3
:1002E000F62E0B8D10E00F5F1F4F0F731127E02EBE
:1002F0008C8D8E110CC00FB607FCFACFE889F989F6
:10030000808185FFF5CFCE010E942701F1CFEB8DD3
:10031000EC0FFD2FF11DE35AFF4FF0829FB7F894C9
:100320000B8FEA89FB8980818062CFCFCF93DF93E7
:10033000EC01888D8823B9F0AA89BB89E889F989FD
:100340008C9185FD03C0808186FD0DC00FB607FC32
:10035000F7CF8C9185FFF2CF808185FFEDCFCE0165
:100360000E942701E9CFDF91CF91089590E0FC0131
:10037000EE58FF4F2491FC01E255FF4F3491FC01F0
:10038000E656FF4FE491EE23C9F0222339F02330E3
:1003900001F1A8F4213019F1223029F1F0E0EE0F3B
:1003A000FF1FE057FF4FA591B4918FB7F894EC91E0
:1003B000611126C030953E233C938FBF08952730AE
:1003C000A9F02830C9F0243049F7809180008F7D52
:1003D00003C0809180008F7780938000DFCF84B549
:1003E0008F7784BDDBCF84B58F7DFBCF8091B0004C
:1003F0008F778093B000D2CF8091B0008F7DF9CFFE
:100400003E2BDACF0F931F93CF93DF93D82F80919A
:10041000B102823018F061E00E94B6010DE812E0EE
:10042000C0E0CD1749F0F80161918F018BEE91E0AA
:100430000E944901CF5FF5CF8BEE91E00E949601BB
:100440008091B6029091B7028230910538F0880F02
:10045000991F880F991F05970197F1F78091B102B5
:10046000823038F060E0DF91CF911F910F910C94B2
:10047000B601DF91CF911F910F9108952091B202A3
:100480003091B3022F5F3F4F3093B3022093B202FB
:100490009091AF02911115C090918C0290938D02B2
:1004A0009091B002906890938E0280938F0283E0C7
:1004B0000E948D00909390028093910285E00C94AD
:1004C000020208950F931F93CF93DF9310E0C0E0D3
:1004D0008BEE91E00E940701892B21F1112399F005
:1004E0008BEE91E00E94E5008091B4029091B502FC
:1004F0008230910568F3880F991F880F991F05971F
:100500000197F1F7E5CF11E0C03209F010E08BEE72
:1005100091E00E94E500EC2FF0E0E457FD4F81836D
:10052000CF5FE2CF112381F08091B2029091B302AC
:100530009C012F5F3F4F3093B3022093B202DF91B3
:10054000CF911F910F910895C73008F4CFC08091CB
:100550008D02882309F461C01092AF02D0918C0201
:100560008D1729F08091AF02882309F46CC00C2FFD
:1005700010E08EEF8C0F0E948D00F801E457FD4FC4
:10058000DF0111972C913081232732272327281749
:10059000390709F0AFC040918E024093B00220911C
:1005A0008F023091900232272327322780919102C7
:1005B00090919202982789279827BC01620F731F98
:1005C000C091AF02C11146C0433009F043C02B3087
:1005D0003105F0F56C30710598F5880FC5E0C80F4E
:1005E000D0938D0280938F02E22FF0E0E617F70799
:1005F000C0F4EE0FFF1FEB52FE4F90813181E42FCC
:10060000F0E0E457FD4F3183E1E0E40FF0E0E45720
:10061000FD4F91834E5F2F5FE7CF91E09093AF0244
:100620009DCF8D5F0E948D00EC2FF0E0E457FD4FD1
:10063000DF0111979C9380838C2F0E94020203C0DC
:1006400083E00E943E028091B2029091B30277CF84
:1006500082E0F7CF463099F42B303105C8F7220FEE
:10066000331FF901EB52FE4F9183808386E00E9495
:100670008D00909393028093940288E0DECF403106
:1006800099F580919302095011098017110691F58F
:100690002B303105E8F66C30710590F637E0822F8B
:1006A00090E086179707B0F4A32FB0E0880F991F4A
:1006B000FC01EB52FE4FA457BD4F11968C91119740
:1006C00012969C91892798278927918380833E5F82
:1006D0002F5FE5CF86E00E948D0090939302809378
:1006E0009402C111B0CFC9CF81E0ABCFC150C730A8
:1006F00008F0A9CF8091B2029091B3020196909335
:10070000B3028093B2029FCFCF93DF9390E0FC01BE
:10071000E255FF4F249186569F4FFC018491882318
:10072000D1F090E0880F991FFC01E859FF4FA59187
:10073000B491FC01E057FF4FC591D49161110EC0F7
:100740009FB7F8948C91E22FE0958E238C932881AB
:10075000E223E8839FBFDF91CF9108958FB7F8948C
:10076000EC91E22BEC938FBFF6CF20918A0230916F
:100770008B022817390771F49091880280918902C1
:10078000981741F0E0918802F0E0E05AFE4F808136
:1007900090E008958FEF9FEF08950895EF92FF92F4
:1007A0000F931F93CF93DF93DC015C96ED90FC9049
:1007B0005D97E114F10479F481E090E013969C9345
:1007C0008E93129790E080E0DF91CF911F910F916F
:1007D000FF90EF9008955196ED91FC9152975096AD
:1007E0008C915097982F90950FB75E962C915E97AD
:1007F000122F127021FD6095F8942081112319F1B8
:10080000282B2083E7012197F1F728E0462F50E0BD
:10081000308160FF1AC0382B3083E7012197F1F750
:10082000BA0175956795215089F7112381F0808170
:10083000892380830FBF5C968D919C910197F1F77E
:1008400081E090E0C1CF2923DCCF3923E5CF90812F
:10085000892BEFCF20918A0230918B02281739071C
:1008600071F4809189022091880290E0805C9F4F12
:10087000821B910960E470E00E94790F089590E076
:1008800080E0089520918A0230918B022817390761
:10089000B9F49091880280918902981789F0E091CB
:1008A0008802F0E0E05AFE4F80812091880230E01B
:1008B0002F5F3F4F2F7333272093880290E00895D6
:1008C0008FEF9FEF089590E080E008954F925F9240
:1008D0006F927F928F929F92AF92BF92CF92DF9250
:1008E000EF92FF924B015C012FB7F8946091A50144
:1008F0007091A6018091A7019091A8012FBF0E943D
:10090000500E6B017C012FB7F8946091A501709196
:10091000A6018091A7019091A8012FBF0E94500EBF
:100920002B013C01A5019401C701B6010E943E0DB7
:100930009B01AC01C301B2010E94AA0D87FF03C055
:100940000E946202E0CFFF90EF90DF90CF90BF90C7
:10095000AF909F908F907F906F905F904F90089591
:10096000FC0101900020E9F73197AF01481B590BBA
:10097000BC0188EB92E00C94A90084E291E00C9415
:10098000B0048F929F92AF92BF920F931F93CF9319
:10099000DF93CDB7DEB7A1970FB6F894DEBF0FBED9
:1009A000CDBF19A2423008F44AE08E010F5D1F4FFF
:1009B000842E912CB12CA12CA50194010E948D0FA5
:1009C000E62FB901CA01EA30F4F4E05DD801EE93F4
:1009D0008D01232B242B252B79F790E080E01097B5
:1009E00019F0CD010E94B004A1960FB6F894DEBFB5
:1009F0000FBECDBFDF91CF911F910F91BF90AF90F0
:100A00009F908F900895E95CE1CF4F925F926F9233
:100A10007F928F929F92AF92BF92CF92DF92EF928E
:100A2000FF920F931F93CF936B017C01742EAC0147
:100A30009B010E94740F882399F087E291E0CF9187
:100A40001F910F91FF90EF90DF90CF90BF90AF90EC
:100A50009F908F907F906F905F904F900C94B00418
:100A600046015701E894B7F82FEF3FEF4FE75FE7F4
:100A7000C501B4010E94740F81110DC02FEF3FEF2B
:100A80004FE75FE7C501B4010E94AA0D18161CF4D8
:100A90008BE291E0D4CF2FEF3FEF4FE75FE4C70148
:100AA000B6010E94020F18161CF48FE291E0C7CF26
:100AB0002FEF3FEF4FE75FECC701B6010E94AA0D91
:100AC00087FDF3CF20E030E0A901C701B6010E9405
:100AD000AA0D10E000E087FF0AC06DE288EB92E00B
:100AE0000E94CE038C01F7FAF094F7F8F094C0E07E
:100AF00060E070E080E09FE37C1641F020E030E0B1
:100B000040E251E40E94AF0DCF5FF6CFA7019601FE
:100B10000E943E0D2B013C010E94210E4B015C0105
:100B20004AE00E94C1047C01E00EF11ECC23C1F119
:100B3000C501B4010E94500E9B01AC01C301B2017A
:100B40000E943D0D4B015C016EE288EB92E00E9439
:100B5000CE03E80EF91EC15018F120E030E040E26B
:100B600051E4C501B4010E94070F2B013C010E9412
:100B7000210E4B01B12CA12C4AE0C501B4010E9409
:100B8000C104E80EF91EC501B4010E94500E9B017C
:100B9000AC01C301B2010E943D0D4B015C01DBCFF2
:100BA000C701CF911F910F91FF90EF90DF90CF90F1
:100BB000BF90AF909F908F907F906F905F904F907D
:100BC00008950C94B0044F925F926F927F928F922F
:100BD0009F92AF92BF92CF92DF92EF92FF920F93CC
:100BE0001F932B013C0149015A01670183E391E006
:100BF0000E94E1050E94BD0487E391E00E94E105A7
:100C000042E0C301B2010E94050585E491E00E9423
:100C1000E10542E0C501B4010E9405058CE391E0C5
:100C20000E94E10542E0C801B6010E9405051F913E
:100C30000F91FF90EF90DF90CF90BF90AF909F907B
:100C40008F907F906F905F904F900C94BD048F9227
:100C50009F92AF92BF92CF92DF92EF92FF924B01A1
:100C60005C0169017A018FE391E00E94E1050E9435
:100C7000BD0487E391E00E94E10542E0C501B401B3
:100C80000E9405058CE391E00E94E10542E0C70166
:100C9000B6010E940505FF90EF90DF90CF90BF90C6
:100CA000AF909F908F900C94BD048F929F92AF92C3
:100CB000BF92CF92DF92EF92FF924B015C016901EC
:100CC0007A018FE391E00E94E1050E94BD0483E474
:100CD00091E00E94E10542E0C501B4010E940505D2
:100CE0008CE391E00E94E10542E0C701B6010E9459
:100CF0000505FF90EF90DF90CF90BF90AF909F9051
:100D00008F900C94BD0488E491E00E94E1050E945C
:100D1000BD048BE491E00E94E1050C94BD04FF92B8
:100D20000F931F93CF93DF93EC018B01FB01F080B6
:100D30000E94270DF81621F06F2DCE010E942F0D75
:100D4000F801F1802196CE010E94270DF81621F0BE
:100D50006F2DCE010E942F0DC801DF91CF911F9101
:100D60000F91FF9008950F931F93CF938C010E94D2
:100D7000270DC82FC80101960E94270D682F70E02B
:100D8000762F66276C0F711D90E080E00E94500E58
:100D9000CF911F910F9108954F925F926F927F9222
:100DA0008F929F92AF92BF92CF92DF92EF92FF927B
:100DB000CF93DF9385E090E00E94B30620E030E01F
:100DC00048EC52E40E94AF0D4B015C01C9EAD1E04E
:100DD00088829982AA82BB8287E090E00E94B30653
:100DE00020E030E048EC52E40E94AF0D6B017C0142
:100DF000CC82DD82EE82FF8289E090E00E94B30621
:100E000020E030E048EC52E40E94AF0DA5019401CF
:100E10000E943E0D2B013C01488659866A867B86DE
:100E2000CC86DD86EE86FF868BE090E00E94B306DE
:100E300020E030E048EC52E40E94AF0D9B01AC0191
:100E4000C501B4010E943D0D688B798B8A8B9B8B09
:100E50008BE090E00E94B30620E030E048EC52E4E2
:100E60000E94AF0DA70196010E943E0D6C8B7D8BF9
:100E70008E8B9F8B8BE090E00E94B30620E030E0E9
:100E800048EC52E40E94AF0D9B01AC01C301B201DA
:100E90000E943D0D688F798F8A8F9B8F8BE090E049
:100EA0000E94B30620E030E048EC52E40E94AF0D0F
:100EB000A70196010E943E0D6C8F7D8F8E8F9F8FB4
:100EC000DF91CF91FF90EF90DF90CF90BF90AF90E8
:100ED0009F908F907F906F905F904F900895EF92CA
:100EE000FF920F931F93CF93DF93EC0161E08DE0AE
:100EF0000E94B6018091D5019091D6018330910571
:100F000009F07BC081E090E09093D8018093D701F5
:100F10008091D5019091D6018C179D0709F0F3C0FF
:100F20008091DB019091DC01019781F480E591E0F3
:100F30000E94E1050E94BD041092D6011092D501D5
:100F40001092DC011092DB010E9483060E94620273
:100F50008091D9019091DA018130910509F063C047
:100F60002091D1013091D2014091D3015091D4010F
:100F70006091C9017091CA018091CB019091CC011F
:100F80000E9427068091D9019091DA01892B21F0E6
:100F90001092D6011092D5011092DA011092D90167
:100FA0006FED71E085E090E00E948F0661EE71E0E8
:100FB00087E090E00E948F0663EE71E089E090E0A8
:100FC0000E948F0665EE71E08BE090E00E948F0634
:100FD00067EE71E08DE090E00E948F0669EE71E0AF
:100FE0008FE090E00E948F0660E070E080EA91E47C
:100FF0000E9466040E94CC068BCF8430910519F4C0
:1010000082E090E081CF8230910519F483E090E096
:101010007BCF019719F484E090E076CF1092D8014D
:101020001092D70175CF8230910591F42091D101B2
:101030003091D2014091D3015091D4016091C90106
:101040007091CA018091CB019091CC01905898CFBA
:101050008330910599F42091D1013091D2014091D2
:10106000D3015091D4016091C9017091CA0180915E
:10107000CB019091CC010E94550684CF843091051C
:1010800091F42091D1013091D2014091D30150913E
:10109000D4016091C9017091CA018091CB019091F6
:1010A000CC019058E8CF8530910539F585E591E080
:1010B0000E94E1050E94BD0460E070E08AE794E4CC
:1010C0000E946604E090CD01F090CE010091CF0126
:1010D0001091D0012091BD013091BE014091BF011E
:1010E0005091C0016091B9017091BA018091BB012A
:1010F0009091BC010E94E30545CF069709F042CFCD
:101100000E9483063FCF60E08DE0DF91CF911F9179
:101110000F91FF90EF900C94B6011F920F920FB6B3
:101120000F9211242F933F934F935F936F937F936D
:101130008F939F93AF93BF93EF93FF938BEE91E0C9
:101140000E942701FF91EF91BF91AF919F918F91E5
:101150007F916F915F914F913F912F910F900FBEB3
:101160000F901F9018951F920F920FB60F92112497
:101170002F938F939F93EF93FF93E091FB01F09157
:10118000FC018081E0910102F091020282FD1BC00E
:101190009081809104028F5F8F73209105028217E6
:1011A00041F0E0910402F0E0E551FE4F958F80930D
:1011B0000402FF91EF919F918F912F910F900FBE9D
:1011C0000F901F9018958081F4CF1F920F920FB649
:1011D0000F9211242F933F938F939F93AF93BF93BD
:1011E0008091A5019091A601A091A701B091A801BD
:1011F0003091A40123E0230F2D3758F50196A11D4E
:10120000B11D2093A4018093A5019093A601A09302
:10121000A701B093A8018091A0019091A101A09194
:10122000A201B091A3010196A11DB11D8093A0015F
:101230009093A101A093A201B093A301BF91AF919C
:101240009F918F913F912F910F900FBE0F901F9004
:10125000189526E8230F0296A11DB11DD2CF1F922B
:101260000F920FB60F9211242F933F934F935F93DA
:101270006F937F938F939F93AF93BF93EF93FF935E
:10128000E0918A02F0918B02309749F0A685B785EC
:101290008585968D91FF14C09C918923A1F4FF91BF
:1012A000EF91BF91AF919F918F917F916F915F91DE
:1012B0004F913F912F910F900FBE0F901F90189557
:1012C0009C91892361F7A389B4899C918589809534
:1012D00089238C93868997890197F1F7608D718DA9
:1012E000A685B785558538E020E0CB010197F1F759
:1012F000822F90E095958795282F4C91452309F0F2
:101300002068315091F7868D81FD2095809189026A
:1013100090E001968F73992730918802381799F0E1
:10132000A0918902B0E0A05ABE4F2C93809389020D
:10133000828D938D0197F1F7A389B4898C9195895A
:10134000892B8C93ACCF868D8160868FF1CF1092E4
:10135000EE011092ED0188EE93E0A0E0B0E0809302
:10136000EF019093F001A093F101B093F20124E01A
:1013700031E03093EC012093EB0125EC30E0309329
:10138000F8012093F70124EC30E03093FA01209328
:10139000F90120EC30E03093FC012093FB0121ECBB
:1013A00030E03093FE012093FD0122EC30E03093D9
:1013B00000022093FF0126EC30E0309302022093DC
:1013C000010210920402109205021092060210927D
:1013D00007021092BB021092BA028093BC02909353
:1013E000BD02A093BE02B093BF0286E191E090934C
:1013F000B9028093B8021092CF021092CE021092DE
:10140000D1021092D0021092D3021092D202109206
:10141000D5021092D4026091D6026E7F6D7F6093E8
:10142000D6026695617081E0682789E00E94B60166
:1014300061E089E00E948403E7EBF0E0E491E0934F
:10144000C802E3EAF0E0E491F0E0EE0FFF1FE0579E
:10145000FF4F859194919093CA028093C90260E0F6
:1014600088E00E9484038091D60281FD04C061E07F
:1014700088E00E94B60188E08093C402E6EBF0E0C9
:10148000E491E093C502E2EAF0E0E491F0E0EE0FCF
:10149000FF1FEA57FF4F859194919093C702809365
:1014A000C6028FE190E09093D5028093D40221E0B0
:1014B00030E03093CF022093CE022DE130E0309324
:1014C000D1022093D0022DE030E03093D30220935C
:1014D000D202209168002160209368002BE630E062
:1014E0003093CC022093CB0221E02093CD020197D0
:1014F000F1F7E0918A02F0918B0282E0E83BF80775
:1015000009F1309739F0A389B4899C918589809538
:1015100089238C938091D6028E7F8093D60210927D
:1015200089021092880288EB92E090938B0280935C
:101530008A02E091CB02F091CC0280819091CD02A1
:10154000892B808381E080938C020895789484B500
:10155000826084BD84B5816084BD85B5826085BDAF
:1015600085B5816085BD80916E00816080936E003D
:10157000109281008091810082608093810080912F
:1015800081008160809381008091800081608093E0
:1015900080008091B10084608093B1008091B000A0
:1015A00081608093B00080917A00846080937A009B
:1015B00080917A00826080937A0080917A008160C5
:1015C00080937A0080917A00806880937A001092EC
:1015D000C10061E08DE00E948403E091FB01F09185
:1015E000FC0182E08083E091FB01F091FC0110821C
:1015F000E091F701F091F8011082E091F901F0918A
:10160000FA0180E1808310920302E091FF01F091E2
:10161000000286E08083E091FD01F091FE0180816F
:1016200080618083E091FD01F091FE0180818860FE
:101630008083E091FD01F091FE01808180688083CC
:10164000E091FD01F091FE0180818F7D80838EEE1F
:1016500092E09093B5028093B40286ED96E0909369
:10166000B7028093B6021092B3021092B20285E0E4
:1016700090E00E94B3060E94210E7093E0016093F7
:10168000DF0187E090E00E94B3060E94210E709374
:10169000E2016093E10189E090E00E94B3060E94BC
:1016A000210E7093E4016093E3018BE090E00E94CF
:1016B000B3060E94210E7093E6016093E5018DE070
:1016C00090E00E94B3060E94210E7093E80160939F
:1016D000E7018FE090E00E94B3060E94210E709314
:1016E000EA016093E9010E94CC0680E090E0A0E866
:1016F000BFE38093C9019093CA01A093CB01B0933B
:10170000CC0180E090E0A8ECB2E48093CD0190930E
:10171000CE01A093CF01B093D00180E090E0A8E487
:10172000B2E48093D1019093D201A093D301B093FE
:10173000D40160E070E48CE995E40E94660483E0E3
:1017400090E09093D6018093D50181E090E0909352
:10175000D8018093D70189E591E00E94E10542E03C
:1017600060E070E080E89FE30E9405050E94BD04F0
:1017700085E591E00E94E1050E94BD0480E0C82E4D
:1017800080E0D82E92E0A92EB12CC3E0D0E08824CE
:101790008394912C6090D5017090D60161147104EE
:1017A000C1F490E080E00E946F078091D501909194
:1017B000D601059720F01092D6011092D501C114E0
:1017C000D10441F30E941301882321F30E940000F9
:1017D000E1CF81E06816710409F043C0E090CD01CB
:1017E000F090CE010091CF011091D0012091AD0178
:1017F0003091AE014091AF015091B0016091A901CB
:101800007091AA018091AB019091AC010E94E30517
:101810008DE090E00E94B3066093CD017093CE01FD
:101820008093CF019093D00181E090E00E946F07F8
:101830008091D5019091D6018530910509F04EC077
:10184000D093D601C093D5018FE090E00E94B306FB
:101850006093CD017093CE018093CF019093D0011E
:10186000A4CF82E06816710409F040C0E090CD0179
:10187000F090CE010091CF011091D0012091B501DF
:101880003091B6014091B7015091B8016091B1011A
:101890007091B2018091B3019091B4010E94E3056F
:1018A0008DE090E00E94B3066093CD017093CE016D
:1018B0008093CF019093D00182E090E00E946F0767
:1018C0008091D5019091D6018530910539F484E05D
:1018D00090E09093D6018093D501B6CF069709F09A
:1018E00064CF7092D6016092D5015FCF83E0681615
:1018F000710409F049C0E090CD01F090CE01009153
:10190000CF011091D0012091BD013091BE014091D5
:10191000BF015091C0016091B9017091BA018091ED
:10192000BB019091BC010E94E3058DE090E00E9414
:10193000B3066093CD017093CE018093CF01909355
:10194000D00183E090E00E946F078091D5019091D3
:10195000D6018630910529F49092D6018092D50166
:1019600073CF8230910539F484E090E09093D601F2
:101970008093D5011ACF8B7F019709F016CFD093B2
:10198000D601C093D50111CF84E06816710409F027
:101990000CCFE090CD01F090CE010091CF011091DD
:1019A000D0012091C5013091C6014091C7015091ED
:1019B000C8016091C1017091C2018091C3019091F1
:1019C000C4010E94E3058DE090E00E94B30660939D
:1019D000CD017093CE018093CF019093D00184E02C
:1019E00090E00E946F078091D5019091D6018630DA
:1019F000910529F4B092D601A092D50125CF81306E
:101A0000910509F4BCCF8530910509F4ADCF02975B
:101A100009F0CBCEA9CF86E191E09093B9028093F3
:101A2000B80280918A0290918B02885B924071F497
:101A3000E091CB02F091CC0290818091CD02809513
:101A40008923808310928B0210928A020895F9995B
:101A5000FECF92BD81BDF89A992780B50895262FB3
:101A6000F999FECF1FBA92BD81BD20BD0FB6F89483
:101A7000FA9AF99A0FBE019608955058BB27AA27E3
:101A80000E94550D0C94C80E0E94BA0E38F00E94A8
:101A9000C10E20F039F49F3F19F426F40C94B70ED0
:101AA0000EF4E095E7FB0C94B10EE92F0E94D90EDD
:101AB00058F3BA17620773078407950720F079F483
:101AC000A6F50C94FB0E0EF4E0950B2EBA2FA02D6C
:101AD0000B01B90190010C01CA01A0011124FF27DB
:101AE000591B99F0593F50F4503E68F11A16F040D6
:101AF000A22F232F342F4427585FF3CF46953795D5
:101B00002795A795F0405395C9F77EF41F16BA0B99
:101B1000620B730B840BBAF09150A1F0FF0FBB1F47
:101B2000661F771F881FC2F70EC0BA0F621F731F90
:101B3000841F48F4879577956795B795F7959E3FED
:101B400008F0B0CF9395880F08F09927EE0F97957E
:101B5000879508950E948D0E08F481E008950E94F3
:101B6000C30D0C94C80E0E94C10E58F00E94BA0E0C
:101B700040F029F45F3F29F00C94B10E51110C9400
:101B8000FC0E0C94B70E0E94D90E68F39923B1F3A2
:101B9000552391F3951B550BBB27AA276217730793
:101BA000840738F09F5F5F4F220F331F441FAA1F27
:101BB000A9F335D00E2E3AF0E0E832D091505040E3
:101BC000E695001CCAF72BD0FE2F29D0660F771F91
:101BD000881FBB1F261737074807AB07B0E809F077
:101BE000BB0B802DBF01FF2793585F4F3AF09E3FFC
:101BF000510578F00C94B10E0C94FC0E5F3FE4F3A9
:101C0000983ED4F3869577956795B795F7959F5F3E
:101C1000C9F7880F911D9695879597F90895E1E08A
:101C2000660F771F881FBB1F621773078407BA07E9
:101C300020F0621B730B840BBA0BEE1F88F7E09544
:101C400008950E94E10E88F09F5798F0B92F9927C8
:101C5000B751B0F0E1F0660F771F881F991F1AF097
:101C6000BA95C9F714C0B13091F00E94FB0EB1E0F3
:101C700008950C94FB0E672F782F8827B85F39F0F2
:101C8000B93FCCF3869577956795B395D9F73EF430
:101C900090958095709561957F4F8F4F9F4F0895D8
:101CA000E89409C097FB3EF49095809570956195F6
:101CB0007F4F8F4F9F4F9923A9F0F92F96E9BB27AC
:101CC0009395F695879577956795B795F111F8CF28
:101CD000FAF4BB0F11F460FF1BC06F5F7F4F8F4F93
:101CE0009F4F16C0882311F096E911C0772321F089
:101CF0009EE8872F762F05C0662371F096E8862F21
:101D000070E060E02AF09A95660F771F881FDAF777
:101D1000880F9695879597F90895990F0008550FA4
:101D2000AA0BE0E8FEEF16161706E807F907C0F061
:101D300012161306E407F50798F0621B730B840B69
:101D4000950B39F40A2661F0232B242B252B21F443
:101D500008950A2609F4A140A6958FEF811D811DE3
:101D6000089597F99F6780E870E060E008959FEF1D
:101D700080EC089500240A94161617061806090622
:101D8000089500240A9412161306140605060895F1
:101D9000092E0394000C11F4882352F0BB0F40F479
:101DA000BF2B11F460FF04C06F5F7F4F8F4F9F4FB9
:101DB000089557FD9058440F551F59F05F3F71F03B
:101DC0004795880F97FB991F61F09F3F79F08795A2
:101DD0000895121613061406551FF2CF4695F1DF2B
:101DE00008C0161617061806991FF1CF86957105BB
:101DF000610508940895E894BB2766277727CB01EF
:101E000097F908950E948D0E08F48FEF08950E94AF
:101E10001A0F0C94C80E0E94BA0E38F00E94C10E20
:101E200020F0952311F00C94B10E0C94B70E1124F0
:101E30000C94FC0E0E94D90E70F3959FC1F3950F80
:101E400050E0551F629FF001729FBB27F00DB11D3E
:101E5000639FAA27F00DB11DAA1F649F6627B00DCE
:101E6000A11D661F829F2227B00DA11D621F739FB7
:101E7000B00DA11D621F839FA00D611D221F749FC5
:101E80003327A00D611D231F849F600D211D822F0C
:101E9000762F6A2F11249F5750409AF0F1F0882333
:101EA0004AF0EE0FFF1FBB1F661F771F881F915060
:101EB0005040A9F79E3F510580F00C94B10E0C9450
:101EC000FC0E5F3FE4F3983ED4F3869577956795D3
:101ED000B795F795E7959F5FC1F7FE2B880F911D8A
:101EE0009695879597F908950E948D0E880B990B0A
:101EF000089597FB072E16F4009407D077FD09D0BC
:101F00000E94AF0F07FC05D03EF4909581959F4F3E
:101F10000895709561957F4F0895A1E21A2EAA1B2E
:101F2000BB1BFD010DC0AA1FBB1FEE1FFF1FA21789
:101F3000B307E407F50720F0A21BB30BE40BF50B86
:101F4000661F771F881F991F1A9469F7609570950F
:101F5000809590959B01AC01BD01CF010895AA1B0E
:101F6000BB1B51E107C0AA1FBB1FA617B70710F084
:101F7000A61BB70B881F991F5A95A9F780959095B6
:101F8000BC01CD010895EE0FFF1F0590F491E02DE7
:101F9000099410E0C2E6D0E004C0FE010E94C30F25
:0C1FA0002196C336D107C9F7F894FFCF93
:101FAC00000000004901A900D60096010701E500D8
:101FBC00F90000000000CE03A9006304CD032A043D
:101FCC004204B5030D0A006E616E00696E66006F07
:101FDC0076660047393000473120580020460047CC
:101FEC0039310047312059004D30004D3939390015
:101FFC004D31313200473238004D3138205300001A
:00000001FF
